{
  "_format": "hh-sol-artifact-1",
  "contractName": "XucreIndexFunds",
  "sourceName": "contracts/XucreIndexFunds.sol",
  "abi": [
    {
      "inputs": [
        {
          "internalType": "address",
          "name": "owner_xucre",
          "type": "address"
        },
        {
          "internalType": "address",
          "name": "tokenContract_xucre",
          "type": "address"
        },
        {
          "internalType": "address",
          "name": "_swapRouter",
          "type": "address"
        },
        {
          "internalType": "uint24",
          "name": "poolFee_xucre",
          "type": "uint24"
        }
      ],
      "stateMutability": "nonpayable",
      "type": "constructor"
    },
    {
      "inputs": [],
      "name": "AccessControlBadConfirmation",
      "type": "error"
    },
    {
      "inputs": [
        {
          "internalType": "address",
          "name": "account",
          "type": "address"
        },
        {
          "internalType": "bytes32",
          "name": "neededRole",
          "type": "bytes32"
        }
      ],
      "name": "AccessControlUnauthorizedAccount",
      "type": "error"
    },
    {
      "inputs": [],
      "name": "EnforcedPause",
      "type": "error"
    },
    {
      "inputs": [],
      "name": "ExpectedPause",
      "type": "error"
    },
    {
      "anonymous": false,
      "inputs": [
        {
          "indexed": false,
          "internalType": "address",
          "name": "account",
          "type": "address"
        }
      ],
      "name": "Paused",
      "type": "event"
    },
    {
      "anonymous": false,
      "inputs": [
        {
          "indexed": true,
          "internalType": "bytes32",
          "name": "role",
          "type": "bytes32"
        },
        {
          "indexed": true,
          "internalType": "bytes32",
          "name": "previousAdminRole",
          "type": "bytes32"
        },
        {
          "indexed": true,
          "internalType": "bytes32",
          "name": "newAdminRole",
          "type": "bytes32"
        }
      ],
      "name": "RoleAdminChanged",
      "type": "event"
    },
    {
      "anonymous": false,
      "inputs": [
        {
          "indexed": true,
          "internalType": "bytes32",
          "name": "role",
          "type": "bytes32"
        },
        {
          "indexed": true,
          "internalType": "address",
          "name": "account",
          "type": "address"
        },
        {
          "indexed": true,
          "internalType": "address",
          "name": "sender",
          "type": "address"
        }
      ],
      "name": "RoleGranted",
      "type": "event"
    },
    {
      "anonymous": false,
      "inputs": [
        {
          "indexed": true,
          "internalType": "bytes32",
          "name": "role",
          "type": "bytes32"
        },
        {
          "indexed": true,
          "internalType": "address",
          "name": "account",
          "type": "address"
        },
        {
          "indexed": true,
          "internalType": "address",
          "name": "sender",
          "type": "address"
        }
      ],
      "name": "RoleRevoked",
      "type": "event"
    },
    {
      "anonymous": false,
      "inputs": [
        {
          "indexed": false,
          "internalType": "address",
          "name": "account",
          "type": "address"
        }
      ],
      "name": "Unpaused",
      "type": "event"
    },
    {
      "stateMutability": "payable",
      "type": "fallback"
    },
    {
      "inputs": [],
      "name": "BATCH_CALL_ROLE",
      "outputs": [
        {
          "internalType": "bytes32",
          "name": "",
          "type": "bytes32"
        }
      ],
      "stateMutability": "view",
      "type": "function"
    },
    {
      "inputs": [],
      "name": "DEFAULT_ADMIN_ROLE",
      "outputs": [
        {
          "internalType": "bytes32",
          "name": "",
          "type": "bytes32"
        }
      ],
      "stateMutability": "view",
      "type": "function"
    },
    {
      "inputs": [],
      "name": "MAX_PRICE_LIMIT",
      "outputs": [
        {
          "internalType": "uint160",
          "name": "",
          "type": "uint160"
        }
      ],
      "stateMutability": "view",
      "type": "function"
    },
    {
      "inputs": [],
      "name": "MIN_PRICE_LIMIT",
      "outputs": [
        {
          "internalType": "uint160",
          "name": "",
          "type": "uint160"
        }
      ],
      "stateMutability": "view",
      "type": "function"
    },
    {
      "inputs": [],
      "name": "PAUSER_ROLE",
      "outputs": [
        {
          "internalType": "bytes32",
          "name": "",
          "type": "bytes32"
        }
      ],
      "stateMutability": "view",
      "type": "function"
    },
    {
      "inputs": [
        {
          "internalType": "uint256",
          "name": "amount_xucre",
          "type": "uint256"
        },
        {
          "internalType": "uint256",
          "name": "bps_xucre",
          "type": "uint256"
        }
      ],
      "name": "calculateFromPercent",
      "outputs": [
        {
          "internalType": "uint256",
          "name": "",
          "type": "uint256"
        }
      ],
      "stateMutability": "pure",
      "type": "function"
    },
    {
      "inputs": [],
      "name": "feeToken",
      "outputs": [
        {
          "internalType": "address",
          "name": "",
          "type": "address"
        }
      ],
      "stateMutability": "view",
      "type": "function"
    },
    {
      "inputs": [
        {
          "internalType": "address",
          "name": "token0",
          "type": "address"
        },
        {
          "internalType": "address",
          "name": "token1",
          "type": "address"
        },
        {
          "internalType": "uint24",
          "name": "fee",
          "type": "uint24"
        },
        {
          "internalType": "int24",
          "name": "tickSpacing",
          "type": "int24"
        }
      ],
      "name": "getPoolKey",
      "outputs": [
        {
          "components": [
            {
              "internalType": "Currency",
              "name": "currency0",
              "type": "address"
            },
            {
              "internalType": "Currency",
              "name": "currency1",
              "type": "address"
            },
            {
              "internalType": "uint24",
              "name": "fee",
              "type": "uint24"
            },
            {
              "internalType": "int24",
              "name": "tickSpacing",
              "type": "int24"
            },
            {
              "internalType": "contract IHooks",
              "name": "hooks",
              "type": "address"
            }
          ],
          "internalType": "struct PoolKey",
          "name": "",
          "type": "tuple"
        }
      ],
      "stateMutability": "pure",
      "type": "function"
    },
    {
      "inputs": [
        {
          "internalType": "bytes32",
          "name": "role",
          "type": "bytes32"
        }
      ],
      "name": "getRoleAdmin",
      "outputs": [
        {
          "internalType": "bytes32",
          "name": "",
          "type": "bytes32"
        }
      ],
      "stateMutability": "view",
      "type": "function"
    },
    {
      "inputs": [
        {
          "internalType": "bytes32",
          "name": "role",
          "type": "bytes32"
        },
        {
          "internalType": "address",
          "name": "account",
          "type": "address"
        }
      ],
      "name": "grantRole",
      "outputs": [],
      "stateMutability": "nonpayable",
      "type": "function"
    },
    {
      "inputs": [
        {
          "internalType": "bytes32",
          "name": "role",
          "type": "bytes32"
        },
        {
          "internalType": "address",
          "name": "account",
          "type": "address"
        }
      ],
      "name": "hasRole",
      "outputs": [
        {
          "internalType": "bool",
          "name": "",
          "type": "bool"
        }
      ],
      "stateMutability": "view",
      "type": "function"
    },
    {
      "inputs": [],
      "name": "pause",
      "outputs": [],
      "stateMutability": "nonpayable",
      "type": "function"
    },
    {
      "inputs": [],
      "name": "paused",
      "outputs": [
        {
          "internalType": "bool",
          "name": "",
          "type": "bool"
        }
      ],
      "stateMutability": "view",
      "type": "function"
    },
    {
      "inputs": [
        {
          "internalType": "address",
          "name": "to_xucre",
          "type": "address"
        },
        {
          "components": [
            {
              "internalType": "address[]",
              "name": "targetTokens",
              "type": "address[]"
            },
            {
              "internalType": "uint256[]",
              "name": "inputAmounts",
              "type": "uint256[]"
            },
            {
              "internalType": "uint24[]",
              "name": "poolFees",
              "type": "uint24[]"
            },
            {
              "components": [
                {
                  "internalType": "Currency",
                  "name": "currency0",
                  "type": "address"
                },
                {
                  "internalType": "Currency",
                  "name": "currency1",
                  "type": "address"
                },
                {
                  "internalType": "uint24",
                  "name": "fee",
                  "type": "uint24"
                },
                {
                  "internalType": "int24",
                  "name": "tickSpacing",
                  "type": "int24"
                },
                {
                  "internalType": "contract IHooks",
                  "name": "hooks",
                  "type": "address"
                }
              ],
              "internalType": "struct PoolKey[]",
              "name": "poolKeys",
              "type": "tuple[]"
            },
            {
              "components": [
                {
                  "internalType": "Currency",
                  "name": "currency0",
                  "type": "address"
                },
                {
                  "internalType": "Currency",
                  "name": "currency1",
                  "type": "address"
                },
                {
                  "internalType": "uint24",
                  "name": "fee",
                  "type": "uint24"
                },
                {
                  "internalType": "int24",
                  "name": "tickSpacing",
                  "type": "int24"
                },
                {
                  "internalType": "contract IHooks",
                  "name": "hooks",
                  "type": "address"
                }
              ],
              "internalType": "struct PoolKey",
              "name": "feeKey",
              "type": "tuple"
            },
            {
              "internalType": "bool",
              "name": "hasFees",
              "type": "bool"
            },
            {
              "internalType": "uint256",
              "name": "amount",
              "type": "uint256"
            },
            {
              "internalType": "address",
              "name": "sourceToken",
              "type": "address"
            }
          ],
          "internalType": "struct XucreIndexFunds.ETFDefinition",
          "name": "etfDefinition",
          "type": "tuple"
        }
      ],
      "name": "performSwapBatch",
      "outputs": [],
      "stateMutability": "nonpayable",
      "type": "function"
    },
    {
      "inputs": [],
      "name": "poolFee",
      "outputs": [
        {
          "internalType": "uint24",
          "name": "",
          "type": "uint24"
        }
      ],
      "stateMutability": "view",
      "type": "function"
    },
    {
      "inputs": [
        {
          "internalType": "bytes32",
          "name": "role",
          "type": "bytes32"
        },
        {
          "internalType": "address",
          "name": "callerConfirmation",
          "type": "address"
        }
      ],
      "name": "renounceRole",
      "outputs": [],
      "stateMutability": "nonpayable",
      "type": "function"
    },
    {
      "inputs": [
        {
          "internalType": "bytes32",
          "name": "role",
          "type": "bytes32"
        },
        {
          "internalType": "address",
          "name": "account",
          "type": "address"
        }
      ],
      "name": "revokeRole",
      "outputs": [],
      "stateMutability": "nonpayable",
      "type": "function"
    },
    {
      "inputs": [
        {
          "internalType": "bytes4",
          "name": "interfaceId",
          "type": "bytes4"
        }
      ],
      "name": "supportsInterface",
      "outputs": [
        {
          "internalType": "bool",
          "name": "",
          "type": "bool"
        }
      ],
      "stateMutability": "view",
      "type": "function"
    },
    {
      "inputs": [],
      "name": "unpause",
      "outputs": [],
      "stateMutability": "nonpayable",
      "type": "function"
    },
    {
      "inputs": [
        {
          "internalType": "address",
          "name": "xucre_to",
          "type": "address"
        }
      ],
      "name": "withdrawBalance",
      "outputs": [],
      "stateMutability": "nonpayable",
      "type": "function"
    },
    {
      "inputs": [
        {
          "internalType": "address",
          "name": "xucre_to",
          "type": "address"
        },
        {
          "internalType": "address",
          "name": "xucre_tokenAddress",
          "type": "address"
        }
      ],
      "name": "withdrawTokenBalance",
      "outputs": [],
      "stateMutability": "nonpayable",
      "type": "function"
    },
    {
      "stateMutability": "payable",
      "type": "receive"
    }
  ],
  "bytecode": "0x60c03461015b57601f6116ae38819003918201601f19168301916001600160401b0383118484101761015f5780849260809460405283398101031261015b5761004781610173565b61005360208301610173565b90606061006260408501610173565b9301519062ffffff8216820361015b576100e59060ff195f54165f557f65d7a28e3265b37a6474929f336521b332c1681b933f6cb9f3376673440d862a6080527f3fc7735c85a339a1b1daf5a92efc57ff14e2074379b26c7a2cf4384435ea308460a0526100cf81610187565b506100dc816080516101fd565b5060a0516101fd565b50600380546001600160b81b0319166001600160a01b039384161760a09290921b62ffffff60a01b16919091179055600280546001600160a01b031916929091169190911790556040516113f79081610277823960805181818161019f0152818161047b01526105c7015260a051816106d00152f35b5f80fd5b634e487b7160e01b5f52604160045260245ffd5b51906001600160a01b038216820361015b57565b6001600160a01b0381165f9081525f8051602061168e833981519152602052604090205460ff166101f8576001600160a01b03165f8181525f8051602061168e83398151915260205260408120805460ff191660011790553391905f8051602061166e8339815191528180a4600190565b505f90565b5f8181526001602090815260408083206001600160a01b038616845290915290205460ff16610270575f8181526001602081815260408084206001600160a01b0396909616808552959091528220805460ff19169091179055339291905f8051602061166e8339815191529080a4600190565b50505f9056fe6080806040526004361015610095575b50361561005b5760405162461bcd60e51b815260206004820152601760248201527f46756e6374696f6e20646f6573206e6f742065786973740000000000000000006044820152606490fd5b60405162461bcd60e51b8152602060048201526012602482015271115d1a195c881b9bdd081858d8d95c1d195960721b6044820152606490fd5b5f3560e01c90816301ffc9a714610d3257508063089fe6aa14610d0d5780631c97dad81461071e578063248a9ca3146106f3578063285877fb146106b95780632f2ff15d1461067b57806336568abe146106375780633f4ba83a146105b2578063542524dd146105835780635c975abb14610562578063647846a51461053a578063756af45f146104de5780638456cb591461046657806391d148541461041d578063a217fddf14610403578063a57b440314610358578063bb29578a14610254578063c7b8e15d14610234578063d547741f146101ef578063df321356146101c65763e63ab1e914610188575f61000f565b346101c2575f3660031901126101c25760206040517f00000000000000000000000000000000000000000000000000000000000000008152f35b5f80fd5b346101c25760403660031901126101c25760206101e7602435600435610f23565b604051908152f35b346101c25760403660031901126101c25761023260043561020e610d9b565b9061022d610228825f526001602052600160405f20015490565b611277565b61133d565b005b346101c2575f3660031901126101c25760206401000276a4604051908152f35b346101c25760403660031901126101c25761026d610d85565b610275610d9b565b9061027e611228565b6001600160a01b03811661028e57005b81815f6102d76102e56102a383978497610f9e565b60405163a9059cbb60e01b602082019081526001600160a01b03909616602482015260448101919091529182906064820190565b03601f198101835282610de1565b51925af16102f1611009565b81610329575b50156102ff57005b60405162461bcd60e51b815260206004820152600260248201526114d560f21b6044820152606490fd5b805180159250821561033e575b5050816102f7565b6103519250602080918301019101611048565b8180610336565b346101c25760803660031901126101c257610371610d85565b610379610d9b565b9060443562ffffff81168091036101c257606435908160020b8092036101c25760a0935f60806040516103ab81610dc5565b8281528260208201528260408201528260608201520152604051936103cf85610dc5565b600180871b03168452600180861b03166020840152604083015260608201525f60808201526104016040518092610ea5565bf35b346101c2575f3660031901126101c25760206040515f8152f35b346101c25760403660031901126101c257610436610d9b565b6004355f52600160205260405f209060018060a01b03165f52602052602060ff60405f2054166040519015158152f35b346101c2575f3660031901126101c25761049f7f0000000000000000000000000000000000000000000000000000000000000000611277565b6104a7610f84565b600160ff195f5416175f557f62e78cea01bee320cd4e420270b5ea74000d11b0c9f74754ebdbfc544b05a2586020604051338152a1005b346101c25760203660031901126101c2576104f7610d85565b6104ff611228565b6001600160a01b03168061050f57005b5f808080934790828215610531575bf11561052657005b6040513d5f823e3d90fd5b506108fc61051e565b346101c2575f3660031901126101c2576003546040516001600160a01b039091168152602090f35b346101c2575f3660031901126101c257602060ff5f54166040519015158152f35b346101c2575f3660031901126101c257602073fffd8963efd1fc6a506488495d951d5263988d25604051908152f35b346101c2575f3660031901126101c2576105eb7f0000000000000000000000000000000000000000000000000000000000000000611277565b5f5460ff8116156106285760ff19165f557f5db9ee0a495bf2e6ff9c91a7834c1ba4fdd244a5e8aa4e537bd38aeae4b073aa6020604051338152a1005b638dfc202b60e01b5f5260045ffd5b346101c25760403660031901126101c257610650610d9b565b336001600160a01b0382160361066c576102329060043561133d565b63334bd91960e11b5f5260045ffd5b346101c25760403660031901126101c25761023260043561069a610d9b565b906106b4610228825f526001602052600160405f20015490565b6112b1565b346101c2575f3660031901126101c25760206040517f00000000000000000000000000000000000000000000000000000000000000008152f35b346101c25760203660031901126101c25760206101e76004355f526001602052600160405f20015490565b346101c25760403660031901126101c257610737610d85565b60243567ffffffffffffffff81116101c25761018060031982360301126101c257604051610100810181811067ffffffffffffffff821117610cf957604052816004013567ffffffffffffffff81116101c2578201366023820112156101c2576004810135906107a682610e03565b916107b46040519384610de1565b808352602060048185019260051b84010101913683116101c257602401905b828210610ce1575050508152602482013567ffffffffffffffff81116101c257820192366023850112156101c25760048401359361081085610e03565b9461081e6040519687610de1565b808652602060048188019260051b84010101913683116101c257602401905b828210610cd15750505060208201938452604483013567ffffffffffffffff81116101c2578301366023820112156101c25760048101359061087e82610e03565b9161088c6040519384610de1565b808352602060048185019260051b84010101913683116101c257602401905b828210610cb9575050506040830152606483013567ffffffffffffffff81116101c2578301366023820112156101c2576004810135906108ea82610e03565b916108f86040519384610de1565b8083526020600460a0828601930284010101913683116101c257602401905b828210610c9f57505050606083019081526109353660848601610e2b565b94608084019586526101248501359384151585036101c25760a0810194855261096d61016460c0830197610144810135895201610db1565b9360e0820194855261097d610f84565b8151518351518091149081610c93575b5015610c4e575f97885b845180518b10156109d5578a6109ac91610ee8565b5181018091116109c157600190990198610997565b634e487b7160e01b5f52601160045260245ffd5b50876127108a9203610bfe5787516109f6906001600160a01b031685610f9e565b825111610bc2576032825104918151155f14610bac575f818192519a5b80518251610a2d9130908b906001600160a01b0316611060565b51600254915160405163095ea7b360e01b602082019081526001600160a01b039485166024830152604482019290925292909116918390610a7181606481016102d7565b51925af1610a7d611009565b81610b7d575b5015610b535751610b1e575b505f956020959150865b8451518110156102325780610b18610ae9610ab76001948751610ee8565b51610acd610ac6858c51610ee8565b5187610f23565b60405191610adb8d84610de1565b5f83528d368e85013761111e565b866fffffffffffffffffffffffffffffffff858060a01b03610b0c868c51610ee8565b51169216913090611060565b01610a99565b610b2d610b4b92519188610f23565b60405191610b3c602084610de1565b5f80845236602085013761111e565b508580610a8f565b60405162461bcd60e51b8152602060048201526002602482015261534160f01b6044820152606490fd5b8051801592508215610b92575b505089610a83565b610ba59250602080918301019101611048565b8980610b8a565b80518381039081116109c1575f9182919a610a13565b60405162461bcd60e51b8152602060048201526014602482015273496e73756666696369656e742062616c616e636560601b6044820152606490fd5b60405162461bcd60e51b815260206004820152602260248201527f496e70757420616d6f756e7473206d7573742061646420757020746f20313030604482015261030360f41b6064820152608490fd5b60405162461bcd60e51b815260206004820152601860248201527f496e76616c696420696e70757420706172616d657465727300000000000000006044820152606490fd5b9050845151148961098d565b602060a091610cae3685610e2b565b815201910190610917565b60208091610cc684610e1b565b8152019101906108ab565b813581526020918201910161083d565b60208091610cee84610db1565b8152019101906107d3565b634e487b7160e01b5f52604160045260245ffd5b346101c2575f3660031901126101c257602062ffffff60035460a01c16604051908152f35b346101c25760203660031901126101c2576004359063ffffffff60e01b82168092036101c257602091637965db0b60e01b8114908115610d74575b5015158152f35b6301ffc9a760e01b14905083610d6d565b600435906001600160a01b03821682036101c257565b602435906001600160a01b03821682036101c257565b35906001600160a01b03821682036101c257565b60a0810190811067ffffffffffffffff821117610cf957604052565b90601f8019910116810190811067ffffffffffffffff821117610cf957604052565b67ffffffffffffffff8111610cf95760051b60200190565b359062ffffff821682036101c257565b91908260a09103126101c257604051610e4381610dc5565b8092610e4e81610db1565b8252610e5c60208201610db1565b6020830152610e6d60408201610e1b565b60408301526060810135908160020b82036101c257606083019190915260800135906001600160a01b03821682036101c25760800152565b80516001600160a01b03908116835260208083015182169084015260408083015162ffffff169084015260608083015160020b9084015260809182015116910152565b8051821015610efc5760209160051b010190565b634e487b7160e01b5f52603260045260245ffd5b818102929181159184041417156109c157565b612710610f308383610f10565b10610f465761271091610f4291610f10565b0490565b60405162461bcd60e51b8152602060048201526016602482015275496e76616c696420616d6f756e7420656e747269657360501b6044820152606490fd5b60ff5f5416610f8f57565b63d93c066560e01b5f5260045ffd5b6040516370a0823160e01b81526001600160a01b0391821660048201529160209183916024918391165afa908115610526575f91610fda575090565b90506020813d602011611001575b81610ff560209383610de1565b810103126101c2575190565b3d9150610fe8565b3d15611043573d9067ffffffffffffffff8211610cf95760405191611038601f8201601f191660200184610de1565b82523d5f602084013e565b606090565b908160209103126101c2575180151581036101c25790565b6040516323b872dd60e01b602082019081526001600160a01b0393841660248301529390921660448301526064808301949094529281525f928392909183906110aa608482610de1565b51925af16110b6611009565b816110ef575b50156110c457565b60405162461bcd60e51b815260206004820152600360248201526229aa2360e91b6044820152606490fd5b8051801592508215611104575b50505f6110bc565b6111179250602080918301019101611048565b5f806110fc565b90916401000276a4604051916060830183811067ffffffffffffffff821117610cf95760405260018352602083019485526040830191825260405190604082019180831067ffffffffffffffff841117610cf957602095865f93610184936111b7966040528581528281019086825260018060a01b0360025416986040519c8d9b8c9a8b9863088a742d60e21b8a5260048a0190610ea5565b51151560a48801525160c4870152516001600160a01b031660e486015251151561010485015251151561012484015261016061014484015280516101648401819052918291018484015e8181018301849052601f01601f191681010301925af1908115610526575f91610fda575090565b335f9081527fa6eef7e35abe7026729641147f7915573c7e97b47efa546f5f6e3230263bcb49602052604090205460ff161561126057565b63e2517d3f60e01b5f52336004525f60245260445ffd5b5f81815260016020908152604080832033845290915290205460ff161561129b5750565b63e2517d3f60e01b5f523360045260245260445ffd5b5f8181526001602090815260408083206001600160a01b038616845290915290205460ff16611337575f8181526001602081815260408084206001600160a01b0396909616808552959091528220805460ff19169091179055339291907f2f8788117e7eff1d82e926ec794901d17c78024a50270940304540a733656f0d9080a4600190565b50505f90565b5f8181526001602090815260408083206001600160a01b038616845290915290205460ff1615611337575f8181526001602090815260408083206001600160a01b0395909516808452949091528120805460ff19169055339291907ff6391f5c32d9c69d2a47ea670b442974b53935d1edc7fd64eb21e047a839171b9080a460019056fea26469706673582212203c51f16d6fddca28dd6c7058a595fd7229cb3ea2e8f9dfc124cb3a6e1d1a963764736f6c634300081a00332f8788117e7eff1d82e926ec794901d17c78024a50270940304540a733656f0da6eef7e35abe7026729641147f7915573c7e97b47efa546f5f6e3230263bcb49",
  "linkReferences": {},
  "deployedLinkReferences": {}
}