{
    "contractName": "XucreIndexFunds",
    "abi": [
        {
            "inputs": [
                {
                    "internalType": "address",
                    "name": "owner_xucre",
                    "type": "address"
                },
                {
                    "internalType": "address",
                    "name": "swapRouter_xucre",
                    "type": "address"
                },
                {
                    "internalType": "address",
                    "name": "tokenContract_xucre",
                    "type": "address"
                },
                {
                    "internalType": "address",
                    "name": "_swapRouter",
                    "type": "address"
                },
                {
                    "internalType": "uint24",
                    "name": "poolFee_xucre",
                    "type": "uint24"
                }
            ],
            "stateMutability": "nonpayable",
            "type": "constructor"
        },
        {
            "inputs": [],
            "name": "AccessControlBadConfirmation",
            "type": "error"
        },
        {
            "inputs": [
                {
                    "internalType": "address",
                    "name": "account",
                    "type": "address"
                },
                {
                    "internalType": "bytes32",
                    "name": "neededRole",
                    "type": "bytes32"
                }
            ],
            "name": "AccessControlUnauthorizedAccount",
            "type": "error"
        },
        {
            "inputs": [],
            "name": "EnforcedPause",
            "type": "error"
        },
        {
            "inputs": [],
            "name": "ExpectedPause",
            "type": "error"
        },
        {
            "anonymous": false,
            "inputs": [
                {
                    "indexed": false,
                    "internalType": "address",
                    "name": "account",
                    "type": "address"
                }
            ],
            "name": "Paused",
            "type": "event"
        },
        {
            "anonymous": false,
            "inputs": [
                {
                    "indexed": true,
                    "internalType": "bytes32",
                    "name": "role",
                    "type": "bytes32"
                },
                {
                    "indexed": true,
                    "internalType": "bytes32",
                    "name": "previousAdminRole",
                    "type": "bytes32"
                },
                {
                    "indexed": true,
                    "internalType": "bytes32",
                    "name": "newAdminRole",
                    "type": "bytes32"
                }
            ],
            "name": "RoleAdminChanged",
            "type": "event"
        },
        {
            "anonymous": false,
            "inputs": [
                {
                    "indexed": true,
                    "internalType": "bytes32",
                    "name": "role",
                    "type": "bytes32"
                },
                {
                    "indexed": true,
                    "internalType": "address",
                    "name": "account",
                    "type": "address"
                },
                {
                    "indexed": true,
                    "internalType": "address",
                    "name": "sender",
                    "type": "address"
                }
            ],
            "name": "RoleGranted",
            "type": "event"
        },
        {
            "anonymous": false,
            "inputs": [
                {
                    "indexed": true,
                    "internalType": "bytes32",
                    "name": "role",
                    "type": "bytes32"
                },
                {
                    "indexed": true,
                    "internalType": "address",
                    "name": "account",
                    "type": "address"
                },
                {
                    "indexed": true,
                    "internalType": "address",
                    "name": "sender",
                    "type": "address"
                }
            ],
            "name": "RoleRevoked",
            "type": "event"
        },
        {
            "anonymous": false,
            "inputs": [
                {
                    "indexed": false,
                    "internalType": "address",
                    "name": "account",
                    "type": "address"
                }
            ],
            "name": "Unpaused",
            "type": "event"
        },
        {
            "stateMutability": "payable",
            "type": "fallback"
        },
        {
            "inputs": [],
            "name": "BATCH_CALL_ROLE",
            "outputs": [
                {
                    "internalType": "bytes32",
                    "name": "",
                    "type": "bytes32"
                }
            ],
            "stateMutability": "view",
            "type": "function"
        },
        {
            "inputs": [],
            "name": "DEFAULT_ADMIN_ROLE",
            "outputs": [
                {
                    "internalType": "bytes32",
                    "name": "",
                    "type": "bytes32"
                }
            ],
            "stateMutability": "view",
            "type": "function"
        },
        {
            "inputs": [],
            "name": "MAX_PRICE_LIMIT",
            "outputs": [
                {
                    "internalType": "uint160",
                    "name": "",
                    "type": "uint160"
                }
            ],
            "stateMutability": "view",
            "type": "function"
        },
        {
            "inputs": [],
            "name": "MIN_PRICE_LIMIT",
            "outputs": [
                {
                    "internalType": "uint160",
                    "name": "",
                    "type": "uint160"
                }
            ],
            "stateMutability": "view",
            "type": "function"
        },
        {
            "inputs": [],
            "name": "PAUSER_ROLE",
            "outputs": [
                {
                    "internalType": "bytes32",
                    "name": "",
                    "type": "bytes32"
                }
            ],
            "stateMutability": "view",
            "type": "function"
        },
        {
            "inputs": [
                {
                    "internalType": "uint256",
                    "name": "amount_xucre",
                    "type": "uint256"
                },
                {
                    "internalType": "uint256",
                    "name": "bps_xucre",
                    "type": "uint256"
                }
            ],
            "name": "calculateFromPercent",
            "outputs": [
                {
                    "internalType": "uint256",
                    "name": "",
                    "type": "uint256"
                }
            ],
            "stateMutability": "pure",
            "type": "function"
        },
        {
            "inputs": [],
            "name": "feeToken",
            "outputs": [
                {
                    "internalType": "address",
                    "name": "",
                    "type": "address"
                }
            ],
            "stateMutability": "view",
            "type": "function"
        },
        {
            "inputs": [
                {
                    "internalType": "bytes32",
                    "name": "role",
                    "type": "bytes32"
                }
            ],
            "name": "getRoleAdmin",
            "outputs": [
                {
                    "internalType": "bytes32",
                    "name": "",
                    "type": "bytes32"
                }
            ],
            "stateMutability": "view",
            "type": "function"
        },
        {
            "inputs": [
                {
                    "internalType": "bytes32",
                    "name": "role",
                    "type": "bytes32"
                },
                {
                    "internalType": "address",
                    "name": "account",
                    "type": "address"
                }
            ],
            "name": "grantRole",
            "outputs": [],
            "stateMutability": "nonpayable",
            "type": "function"
        },
        {
            "inputs": [
                {
                    "internalType": "bytes32",
                    "name": "role",
                    "type": "bytes32"
                },
                {
                    "internalType": "address",
                    "name": "account",
                    "type": "address"
                }
            ],
            "name": "hasRole",
            "outputs": [
                {
                    "internalType": "bool",
                    "name": "",
                    "type": "bool"
                }
            ],
            "stateMutability": "view",
            "type": "function"
        },
        {
            "inputs": [],
            "name": "pause",
            "outputs": [],
            "stateMutability": "nonpayable",
            "type": "function"
        },
        {
            "inputs": [],
            "name": "paused",
            "outputs": [
                {
                    "internalType": "bool",
                    "name": "",
                    "type": "bool"
                }
            ],
            "stateMutability": "view",
            "type": "function"
        },
        {
            "inputs": [
                {
                    "internalType": "address",
                    "name": "to_xucre",
                    "type": "address"
                },
                {
                    "components": [
                        {
                            "internalType": "address[]",
                            "name": "targetTokens",
                            "type": "address[]"
                        },
                        {
                            "internalType": "uint256[]",
                            "name": "inputAmounts",
                            "type": "uint256[]"
                        },
                        {
                            "internalType": "uint24[]",
                            "name": "poolFees",
                            "type": "uint24[]"
                        },
                        {
                            "components": [
                                {
                                    "internalType": "Currency",
                                    "name": "currency0",
                                    "type": "address"
                                },
                                {
                                    "internalType": "Currency",
                                    "name": "currency1",
                                    "type": "address"
                                },
                                {
                                    "internalType": "uint24",
                                    "name": "fee",
                                    "type": "uint24"
                                },
                                {
                                    "internalType": "int24",
                                    "name": "tickSpacing",
                                    "type": "int24"
                                },
                                {
                                    "internalType": "contract IHooks",
                                    "name": "hooks",
                                    "type": "address"
                                }
                            ],
                            "internalType": "struct PoolKey[]",
                            "name": "poolKeys",
                            "type": "tuple[]"
                        },
                        {
                            "components": [
                                {
                                    "internalType": "Currency",
                                    "name": "currency0",
                                    "type": "address"
                                },
                                {
                                    "internalType": "Currency",
                                    "name": "currency1",
                                    "type": "address"
                                },
                                {
                                    "internalType": "uint24",
                                    "name": "fee",
                                    "type": "uint24"
                                },
                                {
                                    "internalType": "int24",
                                    "name": "tickSpacing",
                                    "type": "int24"
                                },
                                {
                                    "internalType": "contract IHooks",
                                    "name": "hooks",
                                    "type": "address"
                                }
                            ],
                            "internalType": "struct PoolKey",
                            "name": "feeKey",
                            "type": "tuple"
                        },
                        {
                            "internalType": "bool",
                            "name": "hasFees",
                            "type": "bool"
                        },
                        {
                            "internalType": "uint256",
                            "name": "amount",
                            "type": "uint256"
                        },
                        {
                            "internalType": "address",
                            "name": "sourceToken",
                            "type": "address"
                        }
                    ],
                    "internalType": "struct XucreIndexFunds.ETFDefinition",
                    "name": "etfDefinition",
                    "type": "tuple"
                }
            ],
            "name": "performSwapBatch",
            "outputs": [],
            "stateMutability": "nonpayable",
            "type": "function"
        },
        {
            "inputs": [],
            "name": "poolFee",
            "outputs": [
                {
                    "internalType": "uint24",
                    "name": "",
                    "type": "uint24"
                }
            ],
            "stateMutability": "view",
            "type": "function"
        },
        {
            "inputs": [
                {
                    "internalType": "bytes32",
                    "name": "role",
                    "type": "bytes32"
                },
                {
                    "internalType": "address",
                    "name": "callerConfirmation",
                    "type": "address"
                }
            ],
            "name": "renounceRole",
            "outputs": [],
            "stateMutability": "nonpayable",
            "type": "function"
        },
        {
            "inputs": [
                {
                    "internalType": "bytes32",
                    "name": "role",
                    "type": "bytes32"
                },
                {
                    "internalType": "address",
                    "name": "account",
                    "type": "address"
                }
            ],
            "name": "revokeRole",
            "outputs": [],
            "stateMutability": "nonpayable",
            "type": "function"
        },
        {
            "inputs": [
                {
                    "internalType": "bytes4",
                    "name": "interfaceId",
                    "type": "bytes4"
                }
            ],
            "name": "supportsInterface",
            "outputs": [
                {
                    "internalType": "bool",
                    "name": "",
                    "type": "bool"
                }
            ],
            "stateMutability": "view",
            "type": "function"
        },
        {
            "inputs": [],
            "name": "unpause",
            "outputs": [],
            "stateMutability": "nonpayable",
            "type": "function"
        },
        {
            "inputs": [
                {
                    "internalType": "address",
                    "name": "xucre_to",
                    "type": "address"
                }
            ],
            "name": "withdrawBalance",
            "outputs": [],
            "stateMutability": "nonpayable",
            "type": "function"
        },
        {
            "inputs": [
                {
                    "internalType": "address",
                    "name": "xucre_to",
                    "type": "address"
                },
                {
                    "internalType": "address",
                    "name": "xucre_tokenAddress",
                    "type": "address"
                }
            ],
            "name": "withdrawTokenBalance",
            "outputs": [],
            "stateMutability": "nonpayable",
            "type": "function"
        },
        {
            "stateMutability": "payable",
            "type": "receive"
        }
    ],
    "bytecode": "60c03461017c57601f6115fb38819003918201601f19168301916001600160401b038311848410176101805780849260a09460405283398101031261017c5761004781610194565b61005360208301610194565b9061006060408401610194565b91608061006f60608601610194565b9401519162ffffff8316830361017c576100f29060ff195f54165f557f65d7a28e3265b37a6474929f336521b332c1681b933f6cb9f3376673440d862a6080527f3fc7735c85a339a1b1daf5a92efc57ff14e2074379b26c7a2cf4384435ea308460a0526100dc816101a8565b506100e98160805161021e565b5060a05161021e565b50600380546001600160a01b03199081166001600160a01b0393841617909155600480546001600160b81b0319169483169490941760a09390931b62ffffff60a01b1692909217909255600280549091169290911691909117905560405161132390816102988239608051818181610194015281816103c50152610511015260a0518161061a0152f35b5f80fd5b634e487b7160e01b5f52604160045260245ffd5b51906001600160a01b038216820361017c57565b6001600160a01b0381165f9081525f805160206115db833981519152602052604090205460ff16610219576001600160a01b03165f8181525f805160206115db83398151915260205260408120805460ff191660011790553391905f805160206115bb8339815191528180a4600190565b505f90565b5f8181526001602090815260408083206001600160a01b038616845290915290205460ff16610291575f8181526001602081815260408084206001600160a01b0396909616808552959091528220805460ff19169091179055339291905f805160206115bb8339815191529080a4600190565b50505f9056fe6080806040526004361015610095575b50361561005b5760405162461bcd60e51b815260206004820152601760248201527f46756e6374696f6e20646f6573206e6f742065786973740000000000000000006044820152606490fd5b60405162461bcd60e51b8152602060048201526012602482015271115d1a195c881b9bdd081858d8d95c1d195960721b6044820152606490fd5b5f3560e01c90816301ffc9a714610c7c57508063089fe6aa14610c575780631c97dad814610668578063248a9ca31461063d578063285877fb146106035780632f2ff15d146105c557806336568abe146105815780633f4ba83a146104fc578063542524dd146104cd5780635c975abb146104ac578063647846a514610484578063756af45f146104285780638456cb59146103b057806391d1485414610367578063a217fddf1461034d578063bb29578a14610249578063c7b8e15d14610229578063d547741f146101e4578063df321356146101bb5763e63ab1e91461017d575f61000f565b346101b7575f3660031901126101b75760206040517f00000000000000000000000000000000000000000000000000000000000000008152f35b5f80fd5b346101b75760403660031901126101b75760206101dc602435600435610e1f565b604051908152f35b346101b75760403660031901126101b757610227600435610203610ce5565b9061022261021d825f526001602052600160405f20015490565b6111a3565b611269565b005b346101b7575f3660031901126101b75760206401000276a4604051908152f35b346101b75760403660031901126101b757610262610ccf565b61026a610ce5565b90610273611154565b6001600160a01b03811661028357005b81815f6102cc6102da61029883978497610e9a565b60405163a9059cbb60e01b602082019081526001600160a01b03909616602482015260448101919091529182906064820190565b03601f198101835282610d0f565b51925af16102e6610f05565b8161031e575b50156102f457005b60405162461bcd60e51b815260206004820152600260248201526114d560f21b6044820152606490fd5b8051801592508215610333575b5050816102ec565b6103469250602080918301019101610f44565b818061032b565b346101b7575f3660031901126101b75760206040515f8152f35b346101b75760403660031901126101b757610380610ce5565b6004355f52600160205260405f209060018060a01b03165f52602052602060ff60405f2054166040519015158152f35b346101b7575f3660031901126101b7576103e97f00000000000000000000000000000000000000000000000000000000000000006111a3565b6103f1610e80565b600160ff195f5416175f557f62e78cea01bee320cd4e420270b5ea74000d11b0c9f74754ebdbfc544b05a2586020604051338152a1005b346101b75760203660031901126101b757610441610ccf565b610449611154565b6001600160a01b03168061045957005b5f80808093479082821561047b575bf11561047057005b6040513d5f823e3d90fd5b506108fc610468565b346101b7575f3660031901126101b7576004546040516001600160a01b039091168152602090f35b346101b7575f3660031901126101b757602060ff5f54166040519015158152f35b346101b7575f3660031901126101b757602073fffd8963efd1fc6a506488495d951d5263988d25604051908152f35b346101b7575f3660031901126101b7576105357f00000000000000000000000000000000000000000000000000000000000000006111a3565b5f5460ff8116156105725760ff19165f557f5db9ee0a495bf2e6ff9c91a7834c1ba4fdd244a5e8aa4e537bd38aeae4b073aa6020604051338152a1005b638dfc202b60e01b5f5260045ffd5b346101b75760403660031901126101b75761059a610ce5565b336001600160a01b038216036105b65761022790600435611269565b63334bd91960e11b5f5260045ffd5b346101b75760403660031901126101b7576102276004356105e4610ce5565b906105fe61021d825f526001602052600160405f20015490565b6111dd565b346101b7575f3660031901126101b75760206040517f00000000000000000000000000000000000000000000000000000000000000008152f35b346101b75760203660031901126101b75760206101dc6004355f526001602052600160405f20015490565b346101b75760403660031901126101b757610681610ccf565b60243567ffffffffffffffff81116101b75761018060031982360301126101b757604051610100810181811067ffffffffffffffff821117610c4357604052816004013567ffffffffffffffff81116101b7578201366023820112156101b7576004810135906106f082610d31565b916106fe6040519384610d0f565b808352602060048185019260051b84010101913683116101b757602401905b828210610c2b575050508152602482013567ffffffffffffffff81116101b757820192366023850112156101b75760048401359361075a85610d31565b946107686040519687610d0f565b808652602060048188019260051b84010101913683116101b757602401905b828210610c1b5750505060208201938452604483013567ffffffffffffffff81116101b7578301366023820112156101b7576004810135906107c882610d31565b916107d66040519384610d0f565b808352602060048185019260051b84010101913683116101b757602401905b828210610c03575050506040830152606483013567ffffffffffffffff81116101b7578301366023820112156101b75760048101359061083482610d31565b916108426040519384610d0f565b8083526020600460a0828601930284010101913683116101b757602401905b828210610be9575050506060830190815261087f3660848601610d59565b94608084019586526101248501359384151585036101b75760a081019485526108b761016460c0830197610144810135895201610cfb565b9360e082019485526108c7610e80565b8151518351518091149081610bdd575b5015610b98575f97885b845180518b101561091f578a6108f691610de4565b51810180911161090b576001909901986108e1565b634e487b7160e01b5f52601160045260245ffd5b50876127108a9203610b48578751610940906001600160a01b031685610e9a565b825111610b0c576032825104918151155f14610af6575f818192519a5b805182516109779130908b906001600160a01b0316610f5c565b51600354915160405163095ea7b360e01b602082019081526001600160a01b0394851660248301526044820192909252929091169183906109bb81606481016102cc565b51925af16109c7610f05565b81610ac7575b5015610a9d5751610a68575b505f956020959150865b8451518110156102275780610a62610a33610a016001948751610de4565b51610a17610a10858c51610de4565b5187610e1f565b60405191610a258d84610d0f565b5f83528d368e85013761101a565b866fffffffffffffffffffffffffffffffff858060a01b03610a56868c51610de4565b51169216913090610f5c565b016109e3565b610a77610a9592519188610e1f565b60405191610a86602084610d0f565b5f80845236602085013761101a565b5085806109d9565b60405162461bcd60e51b8152602060048201526002602482015261534160f01b6044820152606490fd5b8051801592508215610adc575b5050896109cd565b610aef9250602080918301019101610f44565b8980610ad4565b805183810390811161090b575f9182919a61095d565b60405162461bcd60e51b8152602060048201526014602482015273496e73756666696369656e742062616c616e636560601b6044820152606490fd5b60405162461bcd60e51b815260206004820152602260248201527f496e70757420616d6f756e7473206d7573742061646420757020746f20313030604482015261030360f41b6064820152608490fd5b60405162461bcd60e51b815260206004820152601860248201527f496e76616c696420696e70757420706172616d657465727300000000000000006044820152606490fd5b905084515114896108d7565b602060a091610bf83685610d59565b815201910190610861565b60208091610c1084610d49565b8152019101906107f5565b8135815260209182019101610787565b60208091610c3884610cfb565b81520191019061071d565b634e487b7160e01b5f52604160045260245ffd5b346101b7575f3660031901126101b757602062ffffff60045460a01c16604051908152f35b346101b75760203660031901126101b7576004359063ffffffff60e01b82168092036101b757602091637965db0b60e01b8114908115610cbe575b5015158152f35b6301ffc9a760e01b14905083610cb7565b600435906001600160a01b03821682036101b757565b602435906001600160a01b03821682036101b757565b35906001600160a01b03821682036101b757565b90601f8019910116810190811067ffffffffffffffff821117610c4357604052565b67ffffffffffffffff8111610c435760051b60200190565b359062ffffff821682036101b757565b91908260a09103126101b75760405160a0810181811067ffffffffffffffff821117610c43576040528092610d8d81610cfb565b8252610d9b60208201610cfb565b6020830152610dac60408201610d49565b60408301526060810135908160020b82036101b757606083019190915260800135906001600160a01b03821682036101b75760800152565b8051821015610df85760209160051b010190565b634e487b7160e01b5f52603260045260245ffd5b8181029291811591840414171561090b57565b612710610e2c8383610e0c565b10610e425761271091610e3e91610e0c565b0490565b60405162461bcd60e51b8152602060048201526016602482015275496e76616c696420616d6f756e7420656e747269657360501b6044820152606490fd5b60ff5f5416610e8b57565b63d93c066560e01b5f5260045ffd5b6040516370a0823160e01b81526001600160a01b0391821660048201529160209183916024918391165afa908115610470575f91610ed6575090565b90506020813d602011610efd575b81610ef160209383610d0f565b810103126101b7575190565b3d9150610ee4565b3d15610f3f573d9067ffffffffffffffff8211610c435760405191610f34601f8201601f191660200184610d0f565b82523d5f602084013e565b606090565b908160209103126101b7575180151581036101b75790565b6040516323b872dd60e01b602082019081526001600160a01b0393841660248301529390921660448301526064808301949094529281525f92839290918390610fa6608482610d0f565b51925af1610fb2610f05565b81610feb575b5015610fc057565b60405162461bcd60e51b815260206004820152600360248201526229aa2360e91b6044820152606490fd5b8051801592508215611000575b50505f610fb8565b6110139250602080918301019101610f44565b5f80610ff8565b906401000276a4926040516060810181811067ffffffffffffffff821117610c435760405260018152602081019283526040810194855260405191604083019083821067ffffffffffffffff831117610c435760409182525f808552602085810182815260028054865163088a742d60e21b81528b516001600160a01b0390811660048301528c86015181166024830152978c015162ffffff16604482015260608c015190920b60648301526080909a0151861660848201529551151560a4870152965160c48601529751831660e4850152935115156101048401529351151561012483015261016061014483015283516101648301819052919594869491169284929091610184918491819089018385015e8181018301849052601f01601f191681010301925af1908115610470575f91610ed6575090565b335f9081527fa6eef7e35abe7026729641147f7915573c7e97b47efa546f5f6e3230263bcb49602052604090205460ff161561118c57565b63e2517d3f60e01b5f52336004525f60245260445ffd5b5f81815260016020908152604080832033845290915290205460ff16156111c75750565b63e2517d3f60e01b5f523360045260245260445ffd5b5f8181526001602090815260408083206001600160a01b038616845290915290205460ff16611263575f8181526001602081815260408084206001600160a01b0396909616808552959091528220805460ff19169091179055339291907f2f8788117e7eff1d82e926ec794901d17c78024a50270940304540a733656f0d9080a4600190565b50505f90565b5f8181526001602090815260408083206001600160a01b038616845290915290205460ff1615611263575f8181526001602090815260408083206001600160a01b0395909516808452949091528120805460ff19169055339291907ff6391f5c32d9c69d2a47ea670b442974b53935d1edc7fd64eb21e047a839171b9080a460019056fea264697066735822122024208ed0caf6617ce0ea0ac7d8ccab8d2eb1e389fd19759d4c8d8b233398a5cd64736f6c634300081a00332f8788117e7eff1d82e926ec794901d17c78024a50270940304540a733656f0da6eef7e35abe7026729641147f7915573c7e97b47efa546f5f6e3230263bcb49",
    "sourcePath": "/Users/jp/Desktop/Repos/xucre/eth-global-24/contracts/XucreIndexFunds.sol",
    "compiler": {
        "name": "solc",
        "version": "0.8.26+commit.8a97fa7a"
    },
    "functionHashes": {
        "BATCH_CALL_ROLE()": "285877fb",
        "DEFAULT_ADMIN_ROLE()": "a217fddf",
        "MAX_PRICE_LIMIT()": "542524dd",
        "MIN_PRICE_LIMIT()": "c7b8e15d",
        "PAUSER_ROLE()": "e63ab1e9",
        "calculateFromPercent(uint256,uint256)": "df321356",
        "feeToken()": "647846a5",
        "getRoleAdmin(bytes32)": "248a9ca3",
        "grantRole(bytes32,address)": "2f2ff15d",
        "hasRole(bytes32,address)": "91d14854",
        "pause()": "8456cb59",
        "paused()": "5c975abb",
        "performSwapBatch(address,(address[],uint256[],uint24[],(address,address,uint24,int24,address)[],(address,address,uint24,int24,address),bool,uint256,address))": "1c97dad8",
        "poolFee()": "089fe6aa",
        "renounceRole(bytes32,address)": "36568abe",
        "revokeRole(bytes32,address)": "d547741f",
        "supportsInterface(bytes4)": "01ffc9a7",
        "unpause()": "3f4ba83a",
        "withdrawBalance(address)": "756af45f",
        "withdrawTokenBalance(address,address)": "bb29578a"
    },
    "gasEstimates": {
        "creation": {
            "codeDepositCost": "979800",
            "executionCost": "infinite",
            "totalCost": "infinite"
        },
        "external": {
            "": "627",
            "BATCH_CALL_ROLE()": "infinite",
            "DEFAULT_ADMIN_ROLE()": "460",
            "MAX_PRICE_LIMIT()": "332",
            "MIN_PRICE_LIMIT()": "508",
            "PAUSER_ROLE()": "infinite",
            "calculateFromPercent(uint256,uint256)": "infinite",
            "feeToken()": "2500",
            "getRoleAdmin(bytes32)": "2408",
            "grantRole(bytes32,address)": "33390",
            "hasRole(bytes32,address)": "2771",
            "pause()": "infinite",
            "paused()": "2465",
            "performSwapBatch(address,(address[],uint256[],uint24[],(address,address,uint24,int24,address)[],(address,address,uint24,int24,address),bool,uint256,address))": "infinite",
            "poolFee()": "2290",
            "renounceRole(bytes32,address)": "28973",
            "revokeRole(bytes32,address)": "33648",
            "supportsInterface(bytes4)": "270",
            "unpause()": "infinite",
            "withdrawBalance(address)": "infinite",
            "withdrawTokenBalance(address,address)": "infinite"
        },
        "internal": {
            "checkBalance(address,address)": "infinite",
            "swap(struct PoolKey memory,int256,bool,bytes memory)": "infinite"
        }
    }
}